{
  "_format": "hh-sol-artifact-1",
  "contractName": "NFTsMarket",
  "sourceName": "contracts/NFTsMaket.sol",
  "abi": [
    {
      "inputs": [],
      "stateMutability": "nonpayable",
      "type": "constructor"
    },
    {
      "anonymous": false,
      "inputs": [
        {
          "indexed": true,
          "internalType": "address",
          "name": "owner",
          "type": "address"
        },
        {
          "indexed": true,
          "internalType": "address",
          "name": "approved",
          "type": "address"
        },
        {
          "indexed": true,
          "internalType": "uint256",
          "name": "tokenId",
          "type": "uint256"
        }
      ],
      "name": "Approval",
      "type": "event"
    },
    {
      "anonymous": false,
      "inputs": [
        {
          "indexed": true,
          "internalType": "address",
          "name": "owner",
          "type": "address"
        },
        {
          "indexed": true,
          "internalType": "address",
          "name": "operator",
          "type": "address"
        },
        {
          "indexed": false,
          "internalType": "bool",
          "name": "approved",
          "type": "bool"
        }
      ],
      "name": "ApprovalForAll",
      "type": "event"
    },
    {
      "anonymous": false,
      "inputs": [
        {
          "indexed": true,
          "internalType": "uint256",
          "name": "tokenId",
          "type": "uint256"
        },
        {
          "indexed": false,
          "internalType": "address",
          "name": "seller",
          "type": "address"
        },
        {
          "indexed": false,
          "internalType": "address",
          "name": "owner",
          "type": "address"
        },
        {
          "indexed": false,
          "internalType": "uint256",
          "name": "price",
          "type": "uint256"
        },
        {
          "indexed": false,
          "internalType": "bool",
          "name": "sold",
          "type": "bool"
        }
      ],
      "name": "MarketItemCreated",
      "type": "event"
    },
    {
      "anonymous": false,
      "inputs": [
        {
          "indexed": true,
          "internalType": "address",
          "name": "from",
          "type": "address"
        },
        {
          "indexed": true,
          "internalType": "address",
          "name": "to",
          "type": "address"
        },
        {
          "indexed": true,
          "internalType": "uint256",
          "name": "tokenId",
          "type": "uint256"
        }
      ],
      "name": "Transfer",
      "type": "event"
    },
    {
      "inputs": [
        {
          "internalType": "address",
          "name": "to",
          "type": "address"
        },
        {
          "internalType": "uint256",
          "name": "tokenId",
          "type": "uint256"
        }
      ],
      "name": "approve",
      "outputs": [],
      "stateMutability": "nonpayable",
      "type": "function"
    },
    {
      "inputs": [
        {
          "internalType": "address",
          "name": "owner",
          "type": "address"
        }
      ],
      "name": "balanceOf",
      "outputs": [
        {
          "internalType": "uint256",
          "name": "",
          "type": "uint256"
        }
      ],
      "stateMutability": "view",
      "type": "function"
    },
    {
      "inputs": [
        {
          "internalType": "uint256",
          "name": "tokenId",
          "type": "uint256"
        }
      ],
      "name": "createMarketSale",
      "outputs": [],
      "stateMutability": "payable",
      "type": "function"
    },
    {
      "inputs": [
        {
          "internalType": "string",
          "name": "tokenURI",
          "type": "string"
        },
        {
          "internalType": "uint256",
          "name": "price",
          "type": "uint256"
        }
      ],
      "name": "createToken",
      "outputs": [
        {
          "internalType": "uint256",
          "name": "",
          "type": "uint256"
        }
      ],
      "stateMutability": "payable",
      "type": "function"
    },
    {
      "inputs": [],
      "name": "fetchItemsListed",
      "outputs": [
        {
          "components": [
            {
              "internalType": "uint256",
              "name": "tokenId",
              "type": "uint256"
            },
            {
              "internalType": "address payable",
              "name": "seller",
              "type": "address"
            },
            {
              "internalType": "address payable",
              "name": "owner",
              "type": "address"
            },
            {
              "internalType": "uint256",
              "name": "price",
              "type": "uint256"
            },
            {
              "internalType": "bool",
              "name": "sold",
              "type": "bool"
            }
          ],
          "internalType": "struct NFTsMarket.MarketItem[]",
          "name": "",
          "type": "tuple[]"
        }
      ],
      "stateMutability": "view",
      "type": "function"
    },
    {
      "inputs": [],
      "name": "fetchMarketItems",
      "outputs": [
        {
          "components": [
            {
              "internalType": "uint256",
              "name": "tokenId",
              "type": "uint256"
            },
            {
              "internalType": "address payable",
              "name": "seller",
              "type": "address"
            },
            {
              "internalType": "address payable",
              "name": "owner",
              "type": "address"
            },
            {
              "internalType": "uint256",
              "name": "price",
              "type": "uint256"
            },
            {
              "internalType": "bool",
              "name": "sold",
              "type": "bool"
            }
          ],
          "internalType": "struct NFTsMarket.MarketItem[]",
          "name": "",
          "type": "tuple[]"
        }
      ],
      "stateMutability": "view",
      "type": "function"
    },
    {
      "inputs": [],
      "name": "fetchMyNFTs",
      "outputs": [
        {
          "components": [
            {
              "internalType": "uint256",
              "name": "tokenId",
              "type": "uint256"
            },
            {
              "internalType": "address payable",
              "name": "seller",
              "type": "address"
            },
            {
              "internalType": "address payable",
              "name": "owner",
              "type": "address"
            },
            {
              "internalType": "uint256",
              "name": "price",
              "type": "uint256"
            },
            {
              "internalType": "bool",
              "name": "sold",
              "type": "bool"
            }
          ],
          "internalType": "struct NFTsMarket.MarketItem[]",
          "name": "",
          "type": "tuple[]"
        }
      ],
      "stateMutability": "view",
      "type": "function"
    },
    {
      "inputs": [
        {
          "internalType": "uint256",
          "name": "tokenId",
          "type": "uint256"
        }
      ],
      "name": "getApproved",
      "outputs": [
        {
          "internalType": "address",
          "name": "",
          "type": "address"
        }
      ],
      "stateMutability": "view",
      "type": "function"
    },
    {
      "inputs": [
        {
          "internalType": "address",
          "name": "owner",
          "type": "address"
        },
        {
          "internalType": "address",
          "name": "operator",
          "type": "address"
        }
      ],
      "name": "isApprovedForAll",
      "outputs": [
        {
          "internalType": "bool",
          "name": "",
          "type": "bool"
        }
      ],
      "stateMutability": "view",
      "type": "function"
    },
    {
      "inputs": [],
      "name": "name",
      "outputs": [
        {
          "internalType": "string",
          "name": "",
          "type": "string"
        }
      ],
      "stateMutability": "view",
      "type": "function"
    },
    {
      "inputs": [
        {
          "internalType": "uint256",
          "name": "tokenId",
          "type": "uint256"
        }
      ],
      "name": "ownerOf",
      "outputs": [
        {
          "internalType": "address",
          "name": "",
          "type": "address"
        }
      ],
      "stateMutability": "view",
      "type": "function"
    },
    {
      "inputs": [
        {
          "internalType": "uint256",
          "name": "tokenId",
          "type": "uint256"
        },
        {
          "internalType": "uint256",
          "name": "price",
          "type": "uint256"
        }
      ],
      "name": "resellToken",
      "outputs": [],
      "stateMutability": "payable",
      "type": "function"
    },
    {
      "inputs": [
        {
          "internalType": "address",
          "name": "from",
          "type": "address"
        },
        {
          "internalType": "address",
          "name": "to",
          "type": "address"
        },
        {
          "internalType": "uint256",
          "name": "tokenId",
          "type": "uint256"
        }
      ],
      "name": "safeTransferFrom",
      "outputs": [],
      "stateMutability": "nonpayable",
      "type": "function"
    },
    {
      "inputs": [
        {
          "internalType": "address",
          "name": "from",
          "type": "address"
        },
        {
          "internalType": "address",
          "name": "to",
          "type": "address"
        },
        {
          "internalType": "uint256",
          "name": "tokenId",
          "type": "uint256"
        },
        {
          "internalType": "bytes",
          "name": "_data",
          "type": "bytes"
        }
      ],
      "name": "safeTransferFrom",
      "outputs": [],
      "stateMutability": "nonpayable",
      "type": "function"
    },
    {
      "inputs": [
        {
          "internalType": "address",
          "name": "operator",
          "type": "address"
        },
        {
          "internalType": "bool",
          "name": "approved",
          "type": "bool"
        }
      ],
      "name": "setApprovalForAll",
      "outputs": [],
      "stateMutability": "nonpayable",
      "type": "function"
    },
    {
      "inputs": [
        {
          "internalType": "bytes4",
          "name": "interfaceId",
          "type": "bytes4"
        }
      ],
      "name": "supportsInterface",
      "outputs": [
        {
          "internalType": "bool",
          "name": "",
          "type": "bool"
        }
      ],
      "stateMutability": "view",
      "type": "function"
    },
    {
      "inputs": [],
      "name": "symbol",
      "outputs": [
        {
          "internalType": "string",
          "name": "",
          "type": "string"
        }
      ],
      "stateMutability": "view",
      "type": "function"
    },
    {
      "inputs": [
        {
          "internalType": "uint256",
          "name": "tokenId",
          "type": "uint256"
        }
      ],
      "name": "tokenURI",
      "outputs": [
        {
          "internalType": "string",
          "name": "",
          "type": "string"
        }
      ],
      "stateMutability": "view",
      "type": "function"
    },
    {
      "inputs": [
        {
          "internalType": "address",
          "name": "from",
          "type": "address"
        },
        {
          "internalType": "address",
          "name": "to",
          "type": "address"
        },
        {
          "internalType": "uint256",
          "name": "tokenId",
          "type": "uint256"
        }
      ],
      "name": "transferFrom",
      "outputs": [],
      "stateMutability": "nonpayable",
      "type": "function"
    }
  ],
  "bytecode": "0x60806040523480156200001157600080fd5b506040518060400160405280600e81526020017f436f6c6c656374696f6e204642530000000000000000000000000000000000008152506040518060400160405280600481526020017f4346425300000000000000000000000000000000000000000000000000000000815250816000908051906020019062000096929190620000f9565b508060019080519060200190620000af929190620000f9565b50505033600960006101000a81548173ffffffffffffffffffffffffffffffffffffffff021916908373ffffffffffffffffffffffffffffffffffffffff1602179055506200020e565b8280546200010790620001a9565b90600052602060002090601f0160209004810192826200012b576000855562000177565b82601f106200014657805160ff191683800117855562000177565b8280016001018555821562000177579182015b828111156200017657825182559160200191906001019062000159565b5b5090506200018691906200018a565b5090565b5b80821115620001a55760008160009055506001016200018b565b5090565b60006002820490506001821680620001c257607f821691505b60208210811415620001d957620001d8620001df565b5b50919050565b7f4e487b7100000000000000000000000000000000000000000000000000000000600052602260045260246000fd5b6140b3806200021e6000396000f3fe6080604052600436106101145760003560e01c80636352211e116100a0578063b88d4fde11610064578063b88d4fde146103b8578063be9af536146103e1578063c87b56dd146103fd578063e219fc751461043a578063e985e9c51461045657610114565b80636352211e146102ba57806370a08231146102f757806372b3b6201461033457806395d89b4114610364578063a22cb4651461038f57610114565b80630f08efe0116100e75780630f08efe0146101e7578063202e37401461021257806323b872dd1461023d57806342842e0e1461026657806345f8fa801461028f57610114565b806301ffc9a71461011957806306fdde0314610156578063081812fc14610181578063095ea7b3146101be575b600080fd5b34801561012557600080fd5b50610140600480360381019061013b9190612d17565b610493565b60405161014d91906133ab565b60405180910390f35b34801561016257600080fd5b5061016b610575565b60405161017891906133c6565b60405180910390f35b34801561018d57600080fd5b506101a860048036038101906101a39190612dbd565b610607565b6040516101b591906132dd565b60405180910390f35b3480156101ca57600080fd5b506101e560048036038101906101e09190612cdb565b61068c565b005b3480156101f357600080fd5b506101fc6107a4565b6040516102099190613389565b60405180910390f35b34801561021e57600080fd5b50610227610a59565b6040516102349190613389565b60405180910390f35b34801561024957600080fd5b50610264600480360381019061025f9190612bd5565b610d93565b005b34801561027257600080fd5b5061028d60048036038101906102889190612bd5565b610df3565b005b34801561029b57600080fd5b506102a4610e13565b6040516102b19190613389565b60405180910390f35b3480156102c657600080fd5b506102e160048036038101906102dc9190612dbd565b61114d565b6040516102ee91906132dd565b60405180910390f35b34801561030357600080fd5b5061031e60048036038101906103199190612b70565b6111ff565b60405161032b9190613668565b60405180910390f35b61034e60048036038101906103499190612d69565b6112b7565b60405161035b9190613668565b60405180910390f35b34801561037057600080fd5b506103796112f9565b60405161038691906133c6565b60405180910390f35b34801561039b57600080fd5b506103b660048036038101906103b19190612c9f565b61138b565b005b3480156103c457600080fd5b506103df60048036038101906103da9190612c24565b6113a1565b005b6103fb60048036038101906103f69190612dbd565b611403565b005b34801561040957600080fd5b50610424600480360381019061041f9190612dbd565b61163f565b60405161043191906133c6565b60405180910390f35b610454600480360381019061044f9190612de6565b611791565b005b34801561046257600080fd5b5061047d60048036038101906104789190612b99565b611942565b60405161048a91906133ab565b60405180910390f35b60007f80ac58cd000000000000000000000000000000000000000000000000000000007bffffffffffffffffffffffffffffffffffffffffffffffffffffffff1916827bffffffffffffffffffffffffffffffffffffffffffffffffffffffff1916148061055e57507f5b5e139f000000000000000000000000000000000000000000000000000000007bffffffffffffffffffffffffffffffffffffffffffffffffffffffff1916827bffffffffffffffffffffffffffffffffffffffffffffffffffffffff1916145b8061056e575061056d826119d6565b5b9050919050565b60606000805461058490613909565b80601f01602080910402602001604051908101604052809291908181526020018280546105b090613909565b80156105fd5780601f106105d2576101008083540402835291602001916105fd565b820191906000526020600020905b8154815290600101906020018083116105e057829003601f168201915b5050505050905090565b600061061282611a40565b610651576040517f08c379a0000000000000000000000000000000000000000000000000000000008152600401610648906135c8565b60405180910390fd5b6004600083815260200190815260200160002060009054906101000a900473ffffffffffffffffffffffffffffffffffffffff169050919050565b60006106978261114d565b90508073ffffffffffffffffffffffffffffffffffffffff168373ffffffffffffffffffffffffffffffffffffffff161415610708576040517f08c379a00000000000000000000000000000000000000000000000000000000081526004016106ff90613608565b60405180910390fd5b8073ffffffffffffffffffffffffffffffffffffffff16610727611aac565b73ffffffffffffffffffffffffffffffffffffffff161480610756575061075581610750611aac565b611942565b5b610795576040517f08c379a000000000000000000000000000000000000000000000000000000000815260040161078c906134c8565b60405180910390fd5b61079f8383611ab4565b505050565b606060006107b26007611b6d565b905060006107c06008611b6d565b6107ca6007611b6d565b6107d4919061380d565b90506000808267ffffffffffffffff811115610819577f4e487b7100000000000000000000000000000000000000000000000000000000600052604160045260246000fd5b60405190808252806020026020018201604052801561085257816020015b61083f612937565b8152602001906001900390816108375790505b50905060005b84811015610a4e573073ffffffffffffffffffffffffffffffffffffffff16600a60006001846108889190613786565b815260200190815260200160002060020160009054906101000a900473ffffffffffffffffffffffffffffffffffffffff1673ffffffffffffffffffffffffffffffffffffffff161415610a3b5760006001826108e59190613786565b90506000600a60008381526020019081526020016000209050806040518060a0016040529081600082015481526020016001820160009054906101000a900473ffffffffffffffffffffffffffffffffffffffff1673ffffffffffffffffffffffffffffffffffffffff1673ffffffffffffffffffffffffffffffffffffffff1681526020016002820160009054906101000a900473ffffffffffffffffffffffffffffffffffffffff1673ffffffffffffffffffffffffffffffffffffffff1673ffffffffffffffffffffffffffffffffffffffff168152602001600382015481526020016004820160009054906101000a900460ff161515151581525050848681518110610a1e577f4e487b7100000000000000000000000000000000000000000000000000000000600052603260045260246000fd5b6020026020010181905250600185610a369190613786565b945050505b8080610a469061396c565b915050610858565b508094505050505090565b60606000610a676007611b6d565b905060008060005b83811015610b10573373ffffffffffffffffffffffffffffffffffffffff16600a6000600184610a9f9190613786565b815260200190815260200160002060020160009054906101000a900473ffffffffffffffffffffffffffffffffffffffff1673ffffffffffffffffffffffffffffffffffffffff161415610afd57600183610afa9190613786565b92505b8080610b089061396c565b915050610a6f565b5060008267ffffffffffffffff811115610b53577f4e487b7100000000000000000000000000000000000000000000000000000000600052604160045260246000fd5b604051908082528060200260200182016040528015610b8c57816020015b610b79612937565b815260200190600190039081610b715790505b50905060005b84811015610d88573373ffffffffffffffffffffffffffffffffffffffff16600a6000600184610bc29190613786565b815260200190815260200160002060020160009054906101000a900473ffffffffffffffffffffffffffffffffffffffff1673ffffffffffffffffffffffffffffffffffffffff161415610d75576000600182610c1f9190613786565b90506000600a60008381526020019081526020016000209050806040518060a0016040529081600082015481526020016001820160009054906101000a900473ffffffffffffffffffffffffffffffffffffffff1673ffffffffffffffffffffffffffffffffffffffff1673ffffffffffffffffffffffffffffffffffffffff1681526020016002820160009054906101000a900473ffffffffffffffffffffffffffffffffffffffff1673ffffffffffffffffffffffffffffffffffffffff1673ffffffffffffffffffffffffffffffffffffffff168152602001600382015481526020016004820160009054906101000a900460ff161515151581525050848681518110610d58577f4e487b7100000000000000000000000000000000000000000000000000000000600052603260045260246000fd5b6020026020010181905250600185610d709190613786565b945050505b8080610d809061396c565b915050610b92565b508094505050505090565b610da4610d9e611aac565b82611b7b565b610de3576040517f08c379a0000000000000000000000000000000000000000000000000000000008152600401610dda90613628565b60405180910390fd5b610dee838383611c59565b505050565b610e0e838383604051806020016040528060008152506113a1565b505050565b60606000610e216007611b6d565b905060008060005b83811015610eca573373ffffffffffffffffffffffffffffffffffffffff16600a6000600184610e599190613786565b815260200190815260200160002060010160009054906101000a900473ffffffffffffffffffffffffffffffffffffffff1673ffffffffffffffffffffffffffffffffffffffff161415610eb757600183610eb49190613786565b92505b8080610ec29061396c565b915050610e29565b5060008267ffffffffffffffff811115610f0d577f4e487b7100000000000000000000000000000000000000000000000000000000600052604160045260246000fd5b604051908082528060200260200182016040528015610f4657816020015b610f33612937565b815260200190600190039081610f2b5790505b50905060005b84811015611142573373ffffffffffffffffffffffffffffffffffffffff16600a6000600184610f7c9190613786565b815260200190815260200160002060010160009054906101000a900473ffffffffffffffffffffffffffffffffffffffff1673ffffffffffffffffffffffffffffffffffffffff16141561112f576000600182610fd99190613786565b90506000600a60008381526020019081526020016000209050806040518060a0016040529081600082015481526020016001820160009054906101000a900473ffffffffffffffffffffffffffffffffffffffff1673ffffffffffffffffffffffffffffffffffffffff1673ffffffffffffffffffffffffffffffffffffffff1681526020016002820160009054906101000a900473ffffffffffffffffffffffffffffffffffffffff1673ffffffffffffffffffffffffffffffffffffffff1673ffffffffffffffffffffffffffffffffffffffff168152602001600382015481526020016004820160009054906101000a900460ff161515151581525050848681518110611112577f4e487b7100000000000000000000000000000000000000000000000000000000600052603260045260246000fd5b602002602001018190525060018561112a9190613786565b945050505b808061113a9061396c565b915050610f4c565b508094505050505090565b6000806002600084815260200190815260200160002060009054906101000a900473ffffffffffffffffffffffffffffffffffffffff169050600073ffffffffffffffffffffffffffffffffffffffff168173ffffffffffffffffffffffffffffffffffffffff1614156111f6576040517f08c379a00000000000000000000000000000000000000000000000000000000081526004016111ed90613508565b60405180910390fd5b80915050919050565b60008073ffffffffffffffffffffffffffffffffffffffff168273ffffffffffffffffffffffffffffffffffffffff161415611270576040517f08c379a0000000000000000000000000000000000000000000000000000000008152600401611267906134e8565b60405180910390fd5b600360008373ffffffffffffffffffffffffffffffffffffffff1673ffffffffffffffffffffffffffffffffffffffff168152602001908152602001600020549050919050565b60006112c36007611ec0565b60006112cf6007611b6d565b90506112db3382611ed6565b6112e581856120b0565b6112ef8184612124565b8091505092915050565b60606001805461130890613909565b80601f016020809104026020016040519081016040528092919081815260200182805461133490613909565b80156113815780601f1061135657610100808354040283529160200191611381565b820191906000526020600020905b81548152906001019060200180831161136457829003601f168201915b5050505050905090565b61139d611396611aac565b83836122e3565b5050565b6113b26113ac611aac565b83611b7b565b6113f1576040517f08c379a00000000000000000000000000000000000000000000000000000000081526004016113e890613628565b60405180910390fd5b6113fd84848484612450565b50505050565b6000600a60008381526020019081526020016000206003015490506000600a600084815260200190815260200160002060010160009054906101000a900473ffffffffffffffffffffffffffffffffffffffff16905081341461149b576040517f08c379a000000000000000000000000000000000000000000000000000000000815260040161149290613548565b60405180910390fd5b33600a600085815260200190815260200160002060020160006101000a81548173ffffffffffffffffffffffffffffffffffffffff021916908373ffffffffffffffffffffffffffffffffffffffff1602179055506001600a600085815260200190815260200160002060040160006101000a81548160ff0219169083151502179055506000600a600085815260200190815260200160002060010160006101000a81548173ffffffffffffffffffffffffffffffffffffffff021916908373ffffffffffffffffffffffffffffffffffffffff16021790555061157f6008611ec0565b61158a303385611c59565b600960009054906101000a900473ffffffffffffffffffffffffffffffffffffffff1673ffffffffffffffffffffffffffffffffffffffff166108fc839081150290604051600060405180830381858888f193505050501580156115f2573d6000803e3d6000fd5b508073ffffffffffffffffffffffffffffffffffffffff166108fc349081150290604051600060405180830381858888f19350505050158015611639573d6000803e3d6000fd5b50505050565b606061164a82611a40565b611689576040517f08c379a000000000000000000000000000000000000000000000000000000000815260040161168090613588565b60405180910390fd5b60006006600084815260200190815260200160002080546116a990613909565b80601f01602080910402602001604051908101604052809291908181526020018280546116d590613909565b80156117225780601f106116f757610100808354040283529160200191611722565b820191906000526020600020905b81548152906001019060200180831161170557829003601f168201915b5050505050905060006117336124ac565b905060008151141561174957819250505061178c565b60008251111561177e5780826040516020016117669291906132b9565b6040516020818303038152906040529250505061178c565b611787846124c3565b925050505b919050565b3373ffffffffffffffffffffffffffffffffffffffff16600a600084815260200190815260200160002060020160009054906101000a900473ffffffffffffffffffffffffffffffffffffffff1673ffffffffffffffffffffffffffffffffffffffff1614611835576040517f08c379a000000000000000000000000000000000000000000000000000000000815260040161182c906135a8565b60405180910390fd5b6000600a600084815260200190815260200160002060040160006101000a81548160ff02191690831515021790555080600a60008481526020019081526020016000206003018190555033600a600084815260200190815260200160002060010160006101000a81548173ffffffffffffffffffffffffffffffffffffffff021916908373ffffffffffffffffffffffffffffffffffffffff16021790555030600a600084815260200190815260200160002060020160006101000a81548173ffffffffffffffffffffffffffffffffffffffff021916908373ffffffffffffffffffffffffffffffffffffffff160217905550611933600861256a565b61193e333084611c59565b5050565b6000600560008473ffffffffffffffffffffffffffffffffffffffff1673ffffffffffffffffffffffffffffffffffffffff16815260200190815260200160002060008373ffffffffffffffffffffffffffffffffffffffff1673ffffffffffffffffffffffffffffffffffffffff16815260200190815260200160002060009054906101000a900460ff16905092915050565b60007f01ffc9a7000000000000000000000000000000000000000000000000000000007bffffffffffffffffffffffffffffffffffffffffffffffffffffffff1916827bffffffffffffffffffffffffffffffffffffffffffffffffffffffff1916149050919050565b60008073ffffffffffffffffffffffffffffffffffffffff166002600084815260200190815260200160002060009054906101000a900473ffffffffffffffffffffffffffffffffffffffff1673ffffffffffffffffffffffffffffffffffffffff1614159050919050565b600033905090565b816004600083815260200190815260200160002060006101000a81548173ffffffffffffffffffffffffffffffffffffffff021916908373ffffffffffffffffffffffffffffffffffffffff160217905550808273ffffffffffffffffffffffffffffffffffffffff16611b278361114d565b73ffffffffffffffffffffffffffffffffffffffff167f8c5be1e5ebec7d5bd14f71427d1e84f3dd0314c0f7b2291e5b200ac8c7c3b92560405160405180910390a45050565b600081600001549050919050565b6000611b8682611a40565b611bc5576040517f08c379a0000000000000000000000000000000000000000000000000000000008152600401611bbc906134a8565b60405180910390fd5b6000611bd08361114d565b90508073ffffffffffffffffffffffffffffffffffffffff168473ffffffffffffffffffffffffffffffffffffffff161480611c125750611c118185611942565b5b80611c5057508373ffffffffffffffffffffffffffffffffffffffff16611c3884610607565b73ffffffffffffffffffffffffffffffffffffffff16145b91505092915050565b8273ffffffffffffffffffffffffffffffffffffffff16611c798261114d565b73ffffffffffffffffffffffffffffffffffffffff1614611ccf576040517f08c379a0000000000000000000000000000000000000000000000000000000008152600401611cc690613428565b60405180910390fd5b600073ffffffffffffffffffffffffffffffffffffffff168273ffffffffffffffffffffffffffffffffffffffff161415611d3f576040517f08c379a0000000000000000000000000000000000000000000000000000000008152600401611d3690613468565b60405180910390fd5b611d4a8383836125c6565b611d55600082611ab4565b6001600360008573ffffffffffffffffffffffffffffffffffffffff1673ffffffffffffffffffffffffffffffffffffffff1681526020019081526020016000206000828254611da5919061380d565b925050819055506001600360008473ffffffffffffffffffffffffffffffffffffffff1673ffffffffffffffffffffffffffffffffffffffff1681526020019081526020016000206000828254611dfc9190613786565b92505081905550816002600083815260200190815260200160002060006101000a81548173ffffffffffffffffffffffffffffffffffffffff021916908373ffffffffffffffffffffffffffffffffffffffff160217905550808273ffffffffffffffffffffffffffffffffffffffff168473ffffffffffffffffffffffffffffffffffffffff167fddf252ad1be2c89b69c2b068fc378daa952ba7f163c4a11628f55a4df523b3ef60405160405180910390a4611ebb8383836125cb565b505050565b6001816000016000828254019250508190555050565b600073ffffffffffffffffffffffffffffffffffffffff168273ffffffffffffffffffffffffffffffffffffffff161415611f46576040517f08c379a0000000000000000000000000000000000000000000000000000000008152600401611f3d90613568565b60405180910390fd5b611f4f81611a40565b15611f8f576040517f08c379a0000000000000000000000000000000000000000000000000000000008152600401611f8690613448565b60405180910390fd5b611f9b600083836125c6565b6001600360008473ffffffffffffffffffffffffffffffffffffffff1673ffffffffffffffffffffffffffffffffffffffff1681526020019081526020016000206000828254611feb9190613786565b92505081905550816002600083815260200190815260200160002060006101000a81548173ffffffffffffffffffffffffffffffffffffffff021916908373ffffffffffffffffffffffffffffffffffffffff160217905550808273ffffffffffffffffffffffffffffffffffffffff16600073ffffffffffffffffffffffffffffffffffffffff167fddf252ad1be2c89b69c2b068fc378daa952ba7f163c4a11628f55a4df523b3ef60405160405180910390a46120ac600083836125cb565b5050565b6120b982611a40565b6120f8576040517f08c379a00000000000000000000000000000000000000000000000000000000081526004016120ef90613528565b60405180910390fd5b8060066000848152602001908152602001600020908051906020019061211f929190612994565b505050565b60008111612167576040517f08c379a000000000000000000000000000000000000000000000000000000000815260040161215e90613648565b60405180910390fd5b6040518060a001604052808381526020013373ffffffffffffffffffffffffffffffffffffffff1681526020013073ffffffffffffffffffffffffffffffffffffffff16815260200182815260200160001515815250600a60008481526020019081526020016000206000820151816000015560208201518160010160006101000a81548173ffffffffffffffffffffffffffffffffffffffff021916908373ffffffffffffffffffffffffffffffffffffffff16021790555060408201518160020160006101000a81548173ffffffffffffffffffffffffffffffffffffffff021916908373ffffffffffffffffffffffffffffffffffffffff1602179055506060820151816003015560808201518160040160006101000a81548160ff0219169083151502179055509050506122a0333084611c59565b817fb640004f1d14576d0c209e240cad0410e0d8c0c33a09375861fbadae2588a98d33308460006040516122d794939291906132f8565b60405180910390a25050565b8173ffffffffffffffffffffffffffffffffffffffff168373ffffffffffffffffffffffffffffffffffffffff161415612352576040517f08c379a000000000000000000000000000000000000000000000000000000000815260040161234990613488565b60405180910390fd5b80600560008573ffffffffffffffffffffffffffffffffffffffff1673ffffffffffffffffffffffffffffffffffffffff16815260200190815260200160002060008473ffffffffffffffffffffffffffffffffffffffff1673ffffffffffffffffffffffffffffffffffffffff16815260200190815260200160002060006101000a81548160ff0219169083151502179055508173ffffffffffffffffffffffffffffffffffffffff168373ffffffffffffffffffffffffffffffffffffffff167f17307eab39ab6107e8899845ad3d59bd9653f200f220920489ca2b5937696c318360405161244391906133ab565b60405180910390a3505050565b61245b848484611c59565b612467848484846125d0565b6124a6576040517f08c379a000000000000000000000000000000000000000000000000000000000815260040161249d90613408565b60405180910390fd5b50505050565b606060405180602001604052806000815250905090565b60606124ce82611a40565b61250d576040517f08c379a0000000000000000000000000000000000000000000000000000000008152600401612504906135e8565b60405180910390fd5b60006125176124ac565b905060008151116125375760405180602001604052806000815250612562565b8061254184612767565b6040516020016125529291906132b9565b6040516020818303038152906040525b915050919050565b600081600001549050600081116125b6576040517f08c379a00000000000000000000000000000000000000000000000000000000081526004016125ad906133e8565b60405180910390fd5b6001810382600001819055505050565b505050565b505050565b60006125f18473ffffffffffffffffffffffffffffffffffffffff16612914565b1561275a578373ffffffffffffffffffffffffffffffffffffffff1663150b7a0261261a611aac565b8786866040518563ffffffff1660e01b815260040161263c949392919061333d565b602060405180830381600087803b15801561265657600080fd5b505af192505050801561268757506040513d601f19601f820116820180604052508101906126849190612d40565b60015b61270a573d80600081146126b7576040519150601f19603f3d011682016040523d82523d6000602084013e6126bc565b606091505b50600081511415612702576040517f08c379a00000000000000000000000000000000000000000000000000000000081526004016126f990613408565b60405180910390fd5b805181602001fd5b63150b7a0260e01b7bffffffffffffffffffffffffffffffffffffffffffffffffffffffff1916817bffffffffffffffffffffffffffffffffffffffffffffffffffffffff19161491505061275f565b600190505b949350505050565b606060008214156127af576040518060400160405280600181526020017f3000000000000000000000000000000000000000000000000000000000000000815250905061290f565b600082905060005b600082146127e15780806127ca9061396c565b915050600a826127da91906137dc565b91506127b7565b60008167ffffffffffffffff811115612823577f4e487b7100000000000000000000000000000000000000000000000000000000600052604160045260246000fd5b6040519080825280601f01601f1916602001820160405280156128555781602001600182028036833780820191505090505b5090505b600085146129085760018261286e919061380d565b9150600a8561287d91906139b5565b60306128899190613786565b60f81b8183815181106128c5577f4e487b7100000000000000000000000000000000000000000000000000000000600052603260045260246000fd5b60200101907effffffffffffffffffffffffffffffffffffffffffffffffffffffffffffff1916908160001a905350600a8561290191906137dc565b9450612859565b8093505050505b919050565b6000808273ffffffffffffffffffffffffffffffffffffffff163b119050919050565b6040518060a0016040528060008152602001600073ffffffffffffffffffffffffffffffffffffffff168152602001600073ffffffffffffffffffffffffffffffffffffffff168152602001600081526020016000151581525090565b8280546129a090613909565b90600052602060002090601f0160209004810192826129c25760008555612a09565b82601f106129db57805160ff1916838001178555612a09565b82800160010185558215612a09579182015b82811115612a085782518255916020019190600101906129ed565b5b509050612a169190612a1a565b5090565b5b80821115612a33576000816000905550600101612a1b565b5090565b6000612a4a612a45846136a8565b613683565b905082815260208101848484011115612a6257600080fd5b612a6d8482856138c7565b509392505050565b6000612a88612a83846136d9565b613683565b905082815260208101848484011115612aa057600080fd5b612aab8482856138c7565b509392505050565b600081359050612ac281614021565b92915050565b600081359050612ad781614038565b92915050565b600081359050612aec8161404f565b92915050565b600081519050612b018161404f565b92915050565b600082601f830112612b1857600080fd5b8135612b28848260208601612a37565b91505092915050565b600082601f830112612b4257600080fd5b8135612b52848260208601612a75565b91505092915050565b600081359050612b6a81614066565b92915050565b600060208284031215612b8257600080fd5b6000612b9084828501612ab3565b91505092915050565b60008060408385031215612bac57600080fd5b6000612bba85828601612ab3565b9250506020612bcb85828601612ab3565b9150509250929050565b600080600060608486031215612bea57600080fd5b6000612bf886828701612ab3565b9350506020612c0986828701612ab3565b9250506040612c1a86828701612b5b565b9150509250925092565b60008060008060808587031215612c3a57600080fd5b6000612c4887828801612ab3565b9450506020612c5987828801612ab3565b9350506040612c6a87828801612b5b565b925050606085013567ffffffffffffffff811115612c8757600080fd5b612c9387828801612b07565b91505092959194509250565b60008060408385031215612cb257600080fd5b6000612cc085828601612ab3565b9250506020612cd185828601612ac8565b9150509250929050565b60008060408385031215612cee57600080fd5b6000612cfc85828601612ab3565b9250506020612d0d85828601612b5b565b9150509250929050565b600060208284031215612d2957600080fd5b6000612d3784828501612add565b91505092915050565b600060208284031215612d5257600080fd5b6000612d6084828501612af2565b91505092915050565b60008060408385031215612d7c57600080fd5b600083013567ffffffffffffffff811115612d9657600080fd5b612da285828601612b31565b9250506020612db385828601612b5b565b9150509250929050565b600060208284031215612dcf57600080fd5b6000612ddd84828501612b5b565b91505092915050565b60008060408385031215612df957600080fd5b6000612e0785828601612b5b565b9250506020612e1885828601612b5b565b9150509250929050565b6000612e2e8383613233565b60a08301905092915050565b612e4381613853565b82525050565b612e5281613841565b82525050565b6000612e638261371a565b612e6d8185613748565b9350612e788361370a565b8060005b83811015612ea9578151612e908882612e22565b9750612e9b8361373b565b925050600181019050612e7c565b5085935050505092915050565b612ebf81613865565b82525050565b612ece81613865565b82525050565b6000612edf82613725565b612ee98185613759565b9350612ef98185602086016138d6565b612f0281613aa2565b840191505092915050565b6000612f1882613730565b612f22818561376a565b9350612f328185602086016138d6565b612f3b81613aa2565b840191505092915050565b6000612f5182613730565b612f5b818561377b565b9350612f6b8185602086016138d6565b80840191505092915050565b6000612f84601b8361376a565b9150612f8f82613ab3565b602082019050919050565b6000612fa760328361376a565b9150612fb282613adc565b604082019050919050565b6000612fca60258361376a565b9150612fd582613b2b565b604082019050919050565b6000612fed601c8361376a565b9150612ff882613b7a565b602082019050919050565b600061301060248361376a565b915061301b82613ba3565b604082019050919050565b600061303360198361376a565b915061303e82613bf2565b602082019050919050565b6000613056602c8361376a565b915061306182613c1b565b604082019050919050565b600061307960388361376a565b915061308482613c6a565b604082019050919050565b600061309c602a8361376a565b91506130a782613cb9565b604082019050919050565b60006130bf60298361376a565b91506130ca82613d08565b604082019050919050565b60006130e2602e8361376a565b91506130ed82613d57565b604082019050919050565b600061310560408361376a565b915061311082613da6565b604082019050919050565b600061312860208361376a565b915061313382613df5565b602082019050919050565b600061314b60318361376a565b915061315682613e1e565b604082019050919050565b600061316e602a8361376a565b915061317982613e6d565b604082019050919050565b6000613191602c8361376a565b915061319c82613ebc565b604082019050919050565b60006131b4602f8361376a565b91506131bf82613f0b565b604082019050919050565b60006131d760218361376a565b91506131e282613f5a565b604082019050919050565b60006131fa60318361376a565b915061320582613fa9565b604082019050919050565b600061321d601c8361376a565b915061322882613ff8565b602082019050919050565b60a082016000820151613249600085018261329b565b50602082015161325c6020850182612e3a565b50604082015161326f6040850182612e3a565b506060820151613282606085018261329b565b5060808201516132956080850182612eb6565b50505050565b6132a4816138bd565b82525050565b6132b3816138bd565b82525050565b60006132c58285612f46565b91506132d18284612f46565b91508190509392505050565b60006020820190506132f26000830184612e49565b92915050565b600060808201905061330d6000830187612e49565b61331a6020830186612e49565b61332760408301856132aa565b6133346060830184612ec5565b95945050505050565b60006080820190506133526000830187612e49565b61335f6020830186612e49565b61336c60408301856132aa565b818103606083015261337e8184612ed4565b905095945050505050565b600060208201905081810360008301526133a38184612e58565b905092915050565b60006020820190506133c06000830184612ec5565b92915050565b600060208201905081810360008301526133e08184612f0d565b905092915050565b6000602082019050818103600083015261340181612f77565b9050919050565b6000602082019050818103600083015261342181612f9a565b9050919050565b6000602082019050818103600083015261344181612fbd565b9050919050565b6000602082019050818103600083015261346181612fe0565b9050919050565b6000602082019050818103600083015261348181613003565b9050919050565b600060208201905081810360008301526134a181613026565b9050919050565b600060208201905081810360008301526134c181613049565b9050919050565b600060208201905081810360008301526134e18161306c565b9050919050565b600060208201905081810360008301526135018161308f565b9050919050565b60006020820190508181036000830152613521816130b2565b9050919050565b60006020820190508181036000830152613541816130d5565b9050919050565b60006020820190508181036000830152613561816130f8565b9050919050565b600060208201905081810360008301526135818161311b565b9050919050565b600060208201905081810360008301526135a18161313e565b9050919050565b600060208201905081810360008301526135c181613161565b9050919050565b600060208201905081810360008301526135e181613184565b9050919050565b60006020820190508181036000830152613601816131a7565b9050919050565b60006020820190508181036000830152613621816131ca565b9050919050565b60006020820190508181036000830152613641816131ed565b9050919050565b6000602082019050818103600083015261366181613210565b9050919050565b600060208201905061367d60008301846132aa565b92915050565b600061368d61369e565b9050613699828261393b565b919050565b6000604051905090565b600067ffffffffffffffff8211156136c3576136c2613a73565b5b6136cc82613aa2565b9050602081019050919050565b600067ffffffffffffffff8211156136f4576136f3613a73565b5b6136fd82613aa2565b9050602081019050919050565b6000819050602082019050919050565b600081519050919050565b600081519050919050565b600081519050919050565b6000602082019050919050565b600082825260208201905092915050565b600082825260208201905092915050565b600082825260208201905092915050565b600081905092915050565b6000613791826138bd565b915061379c836138bd565b9250827fffffffffffffffffffffffffffffffffffffffffffffffffffffffffffffffff038211156137d1576137d06139e6565b5b828201905092915050565b60006137e7826138bd565b91506137f2836138bd565b92508261380257613801613a15565b5b828204905092915050565b6000613818826138bd565b9150613823836138bd565b925082821015613836576138356139e6565b5b828203905092915050565b600061384c8261389d565b9050919050565b600061385e8261389d565b9050919050565b60008115159050919050565b60007fffffffff0000000000000000000000000000000000000000000000000000000082169050919050565b600073ffffffffffffffffffffffffffffffffffffffff82169050919050565b6000819050919050565b82818337600083830152505050565b60005b838110156138f45780820151818401526020810190506138d9565b83811115613903576000848401525b50505050565b6000600282049050600182168061392157607f821691505b6020821081141561393557613934613a44565b5b50919050565b61394482613aa2565b810181811067ffffffffffffffff8211171561396357613962613a73565b5b80604052505050565b6000613977826138bd565b91507fffffffffffffffffffffffffffffffffffffffffffffffffffffffffffffffff8214156139aa576139a96139e6565b5b600182019050919050565b60006139c0826138bd565b91506139cb836138bd565b9250826139db576139da613a15565b5b828206905092915050565b7f4e487b7100000000000000000000000000000000000000000000000000000000600052601160045260246000fd5b7f4e487b7100000000000000000000000000000000000000000000000000000000600052601260045260246000fd5b7f4e487b7100000000000000000000000000000000000000000000000000000000600052602260045260246000fd5b7f4e487b7100000000000000000000000000000000000000000000000000000000600052604160045260246000fd5b6000601f19601f8301169050919050565b7f436f756e7465723a2064656372656d656e74206f766572666c6f770000000000600082015250565b7f4552433732313a207472616e7366657220746f206e6f6e20455243373231526560008201527f63656976657220696d706c656d656e7465720000000000000000000000000000602082015250565b7f4552433732313a207472616e736665722066726f6d20696e636f72726563742060008201527f6f776e6572000000000000000000000000000000000000000000000000000000602082015250565b7f4552433732313a20746f6b656e20616c7265616479206d696e74656400000000600082015250565b7f4552433732313a207472616e7366657220746f20746865207a65726f2061646460008201527f7265737300000000000000000000000000000000000000000000000000000000602082015250565b7f4552433732313a20617070726f766520746f2063616c6c657200000000000000600082015250565b7f4552433732313a206f70657261746f7220717565727920666f72206e6f6e657860008201527f697374656e7420746f6b656e0000000000000000000000000000000000000000602082015250565b7f4552433732313a20617070726f76652063616c6c6572206973206e6f74206f7760008201527f6e6572206e6f7220617070726f76656420666f7220616c6c0000000000000000602082015250565b7f4552433732313a2062616c616e636520717565727920666f7220746865207a6560008201527f726f206164647265737300000000000000000000000000000000000000000000602082015250565b7f4552433732313a206f776e657220717565727920666f72206e6f6e657869737460008201527f656e7420746f6b656e0000000000000000000000000000000000000000000000602082015250565b7f45524337323155524953746f726167653a2055524920736574206f66206e6f6e60008201527f6578697374656e7420746f6b656e000000000000000000000000000000000000602082015250565b7f506c65617365207375626d6974207468652061736b696e67207072696365206960008201527f6e206f7264657220746f20636f6d706c65746520746865207075726368617365602082015250565b7f4552433732313a206d696e7420746f20746865207a65726f2061646472657373600082015250565b7f45524337323155524953746f726167653a2055524920717565727920666f722060008201527f6e6f6e6578697374656e7420746f6b656e000000000000000000000000000000602082015250565b7f4f6e6c79206974656d206f776e65722063616e20706572666f726d207468697360008201527f206f7065726174696f6e00000000000000000000000000000000000000000000602082015250565b7f4552433732313a20617070726f76656420717565727920666f72206e6f6e657860008201527f697374656e7420746f6b656e0000000000000000000000000000000000000000602082015250565b7f4552433732314d657461646174613a2055524920717565727920666f72206e6f60008201527f6e6578697374656e7420746f6b656e0000000000000000000000000000000000602082015250565b7f4552433732313a20617070726f76616c20746f2063757272656e74206f776e6560008201527f7200000000000000000000000000000000000000000000000000000000000000602082015250565b7f4552433732313a207472616e736665722063616c6c6572206973206e6f74206f60008201527f776e6572206e6f7220617070726f766564000000000000000000000000000000602082015250565b7f5072696365206d757374206265206174206c6561737420312077656900000000600082015250565b61402a81613841565b811461403557600080fd5b50565b61404181613865565b811461404c57600080fd5b50565b61405881613871565b811461406357600080fd5b50565b61406f816138bd565b811461407a57600080fd5b5056fea26469706673582212208b04043a2a1cbb6938016cd33aea77823bfec28981573ceafef79f07bcfe23c064736f6c63430008040033",
  "linkReferences": {},
  "deployedLinkReferences": {}
}